:020000040800F2
:10000000400400204501000859060008FB020008D2
:1000100055060008C50100088D0A00080000000010
:100020000000000000000000000000005107000870
:10003000C9010008000000005B06000889080008EC
:100040005F0100085F0100085F0100085F01000810
:100050005F0100085F0100085F0100085F01000800
:100060005F0100085F0100085F0100085F010008F0
:100070005F0100085F0100085F0100085F010008E0
:100080005F0100085F0100085F0100085F010008D0
:100090005F0100085F0100085F0100085F010008C0
:1000A0005F0100085F0100085F0100085F010008B0
:1000B0005F0100085F0100085F0100085F010008A0
:1000C0005F0100085F0100085F0100085F01000890
:1000D0005F0100085F0100085F0100085F01000880
:1000E0005F0100085F0100085F0100085F01000870
:1000F0005F0100085F0100085F0100085F01000860
:100100005F0100085F0100085F0100085F0100084F
:100110005F0100085F0100085F0100085F0100083F
:100120005F0100085F0100085F0100085F0100082F
:10013000DFF80CD000F018F800480047850B0008E5
:10014000400400200648804706480047FEE7FEE7D7
:10015000FEE7FEE7FEE7FEE7FEE7FEE7FEE7FEE777
:100160001909000831010008064C074D06E0E06857
:1001700040F0010394E8070098471034AC42F6D3EE
:10018000FFF7DAFF180C0008380C000808B5012149
:10019000082000F063FA4FF48070ADF800000320EF
:1001A0008DF8020010208DF803006946034800F026
:1001B0000CF800200249087008BD0000000C014046
:1001C0003800002000BFFEE770472DE9F0410246ED
:1001D00000250026002000230024002791F803C0FA
:1001E0000CF00F0591F803C00CF0100CBCF1000FDF
:1001F00003D091F802C04CEA050591F800C0BCF1AB
:10020000000F31D0146800202BE04FF0010C0CFAE5
:1002100000F3B1F800C00CEA03069E4220D183002F
:100220004FF00F0C0CFA03F7BC4305FA03FC4CEA41
:10023000040491F803C0BCF1280F06D14FF0010C63
:100240000CFA00FCC2F814C00AE091F803C0BCF13B
:10025000480F05D14FF0010C0CFA00FCC2F810C099
:10026000401C0828D1D31460B1F800C0BCF1FF0FC6
:1002700034DD546800202EE000F1080C4FF0010836
:1002800008FA0CF3B1F800C00CEA03069E4221D133
:1002900083004FF00F0C0CFA03F7BC4305FA03FC84
:1002A0004CEA040491F803C0BCF1280F05D100F119
:1002B000080C08FA0CF8C2F8148091F803C0BCF1DD
:1002C000480F07D100F1080C4FF0010808FA0CF8AC
:1002D000C2F81080401C0828CED35460BDE8F081DD
:1002E0000246002093680B400BB1012000E0002083
:1002F0007047416170470161704700BFFEE7000031
:10030000024642EA0100044B1B78984201D10120C9
:1003100070470020FCE700003400002038B5044698
:10032000002504F00E0028B904F00D0010B904F007
:100330000B00F0B104F00E0008B145F0100504F018
:100340000D0008B145F0080504F00B0008B145F0B8
:1003500004050121402000F081F9ADF80050012092
:100360008DF8020048208DF8030069460B48FFF71E
:100370002CFF04F0070078B10121042000F06EF991
:100380000120ADF800008DF8020028208DF8030050
:1003900069460348FFF719FF38BD00000018014007
:1003A0000008014010B50F2400F08AF804462E48DA
:1003B0000078072852D2DFE800F051040A0E1C3200
:1003C00045000F2C02D002202749087047E0032087
:1003D0002549087043E00F2C07D02448047044F0EE
:1003E000800404202049087002E001201E490870A2
:1003F00035E00F2C0FD01E480078401CC0B21C49BD
:10040000087064280ADD0020087044F040040520CC
:100410001549087002E00620134908701FE00F2CF0
:100420000CD013480078401CC0B21149087019283C
:1004300007DD0020087044F0200402E006200A498D
:1004400008700CE00948007840F010000749087077
:100450000846047801200449087000E000BF00BF8E
:100460000448047010BD0000350000203700002053
:10047000360000203400002010B504460E2C04D1B4
:1004800010210D48FFF72CFF10BD0D2C04D10821C1
:100490000948FFF725FFF7E70B2C04D10421064894
:1004A000FFF71EFFF0E7072C04D101210348FFF7F7
:1004B00017FFE9E70220E7E70018014000080140C4
:1004C00010B50E20FFF7D8FF08B90E2010BD0D2083
:1004D000FFF7D2FF08B90D20F8E70B20FFF7CCFF9C
:1004E00008B90B20F2E70720FFF7C6FF012801D16A
:1004F0000720EBE70F20E9E738B5044604F00100D8
:1005000018B10121402000F0A9F804F0020018B150
:100510000121082000F0A2F82020ADF800000320FF
:100520008DF8020010208DF8030004F0010018B1CE
:1005300069460748FFF749FE04F0010018B1694613
:100540000448FFF742FE00200349087038BD000050
:1005500000180140000C01402800002010B504469E
:1005600004F0010040B10D48007800F0010018B11E
:1005700020210B48FFF7BFFE04F0020040B10748FE
:10058000007800F0020018B120210648FFF7B3FE02
:1005900002480078A0430149087010BD28000020DF
:1005A00000180140000C014010B5044604F00100A1
:1005B00040B10D48007800F0010018B920210B4827
:1005C000FFF797FE04F0020040B10748007800F002
:1005D000020018B920210648FFF78BFE0248007878
:1005E00020430149087010BD280000200018014078
:1005F000000C014010B5044604F0010068B1124837
:10060000007800F0010020B120211048FFF773FEB0
:1006100003E020210D48FFF76CFE04F0020068B1F2
:100620000948007800F0020020B120210848FFF7B7
:1006300062FE03E020210648FFF75BFE02480078D7
:1006400060400149087010BD2800002000180140DA
:10065000000C014000BFFEE77047704729B1064A11
:1006600092690243044B9A6104E0034A926982430F
:10067000014B9A61704700000010024030B5002124
:100680000022002400232D4D6D6805F00C0121B1DE
:10069000042905D0082923D105E0294D056022E071
:1006A000274D05601FE0254D6D6805F47012234D40
:1006B0006D6805F48034022505EB92421CB9214D8A
:1006C000554305600BE01D4D6D6805F400351DB107
:1006D0001C4D5543056002E0194D5543056002E08D
:1006E000174D056000BF00BF144D6D6805F0F001A7
:1006F0000909154D6B5C0568DD4045600F4D6D685F
:1007000005F4E061090A104D6B5C4568DD408560C9
:100710000A4D6D6805F46051C90A0B4D6B5C456864
:10072000DD40C560054D6D6805F44041890B074DFE
:100730006B5CC568B5FBF3F5056130BD0010024088
:1007400000127A0000093D0014000020240000205F
:10075000704710B500F002F810BD00000CB5002085
:10076000019000903348006840F4803031490860BF
:1007700000BF3048006800F4003000900198401C31
:100780000190009818B90198B0F5A06FF1D12948EF
:10079000006800F4003010B10120009001E000205A
:1007A00000900098012843D12348006840F01000D1
:1007B000214908600846006820F0030008600846E8
:1007C000006840F0020008601A4840681949486013
:1007D0000846406848600846406840F480604860C9
:1007E0000846406820F47C1048600846406840F4A1
:1007F000E81048600846006840F08070086000BF5C
:100800000C48006800F000700028F9D009484068E2
:1008100020F00300074948600846406840F00200A5
:10082000486000BF0348406800F00C000828F9D178
:100830000CBD000000100240002002400448006887
:1008400020B103480068401E01490860704700005D
:100850003000002000FB01F2094B1B68B2FBF3F2F1
:10086000084B1A604FF0E022126942F001024FF08B
:10087000E0231A6100BF034A1268002AFBD17047C7
:100880002C0000203000002010B5FFF7D7FF10BD6E
:10089000F0B502461C480068B0FBF2F0B0FBF1F383
:1008A000B3F1807F01D301201DE023F07F40401E83
:1008B0004FF0E024606160170F24002807DA250755
:1008C0002F0E124D00F00F06361FAF5503E025071F
:1008D0002E0E0F4D2E5400BF00204FF0E024A061DB
:1008E00007202061002008B100BFFEE74FF0E020A4
:1008F000006920F001004FF0E023186102FB01F0D5
:10090000044B1860F0BD00000000002018ED00E06E
:1009100000E400E02C00002010B51348006840F00F
:1009200001001149086008464068104908400E4916
:100930004860084600680E4908400B4908600846B0
:10094000006820F4802008600846406820F4FE001B
:1009500048604FF41F008860FFF7FBFE4FF0006017
:100960000449086010BD0000001002400000FFF8BC
:10097000FFFFF6FE08ED00E021B1828942F400524B
:10098000828104E082894DF6FF731A4082817047AC
:1009900002460020B1F5007F00D100BF13880B4054
:1009A0000BB1012000E00020704700002DE9F04766
:1009B00086B005460E460024A24600BFA146002789
:1009C000B08900B100BF2F462C8A4CF6FF7004405E
:1009D000F08804432C82AC894EF6F3100440B088B2
:1009E00031890843718908430443AC81AC8A4FF6CE
:1009F000FF400440B0890443AC8201A8FFF73EFEEB
:100A00001F48874202D1DDF810A001E0DDF80CA0FC
:100A1000A88900F4004040B10AEBCA0000EB0A10BC
:100A200031684900B0FBF1F807E00AEBCA0000EBBF
:100A30000A1031688900B0FBF1F86420B8FBF0F0CF
:100A400004012009642101FB1089A88900F40040F9
:100A500040B1322000EBC900B0FBF1F000F007001C
:100A6000044308E0322000EB09106421B0FBF1F0F0
:100A700000F00F0004432C8106B0BDE8F0870000B1
:100A800000380140C1F308028280704700BFFEE7D2
:100A900000B585B0012144F20400FFF7DFFD182006
:100AA0008DF813004FF40070ADF8100001208DF8A0
:100AB000120004A91448FFF788FB04208DF81300E6
:100AC0000002ADF8100004A90F48FFF77EFB4FF4B9
:100AD000E13000900020ADF80C000C20ADF80A00C9
:100AE0000020ADF808000120ADF806000820ADF8A0
:100AF000040069460548FFF759FF01210348FFF745
:100B00003BFF05B000BD0000000801400038014077
:100B1000014A024900F013B8610B00083C000020B4
:100B200002E008C8121F08C1002AFAD170477047B6
:100B3000002001E001C1121F002AFBD170472DE9FE
:100B4000F04116460F460446002503E03946B047FB
:100B5000641C6D1C20780028F8D12846BDE8F0817F
:100B600070B504460D46A1B20548FFF78BFF00BFE4
:100B700040210348FFF70CFF0128F9D1204670BD42
:100B8000003801400320FFF7B7FCFFF7FFFA4FF4EE
:100B90007A710120FFF77CFE0320FFF705FDFFF7C8
:100BA00077FF4FF47A71C820FFF754FE0320FFF758
:100BB000D5FC0F20FFF7B2FB13A0FFF7A9FF21E040
:100BC000FFF7F0FB80210E20FFF79AFB10B1012008
:100BD000FFF710FD80210D20FFF792FB10B10220DE
:100BE000FFF708FD80210B20FFF78AFB10B10120E1
:100BF000FFF7B4FC80210720FFF782FB10B1022031
:100C0000FFF7ACFCDCE7000054657374205573619A
:100C100072740D0A00000000380C0008000000206B
:100C200040000000200B0008780C00084000002065
:100C300000040000300B000800A24A04000000007D
:100C4000000000000102030406070809000000007C
:100C5000010203040102030406070809020406084E
:100C60000000000000000000000000000001000F74
:080C700000000000000000007C
:0400000508000131BD
:00000001FF
