:020000040800F2
:1000000088060020CD0100089D0700083F04000875
:100010009907000809030008E9090008000000002A
:10002000000000000000000000000000C107000800
:100030000D030008000000009F070008F9080008F1
:10004000E7010008E7010008E7010008E7010008F0
:10005000E7010008E7010008E7010008E7010008E0
:10006000E7010008E7010008E7010008E7010008D0
:10007000E7010008E7010008E7010008E7010008C0
:10008000E7010008E7010008E7010008E7010008B0
:10009000E7010008E7010008E7010008E7010008A0
:1000A000E7010008E7010008E7010008E701000890
:1000B000E7010008E7010008E7010008E701000880
:1000C000E7010008E7010008E7010008E701000870
:1000D000E7010008E7010008E7010008E701000860
:1000E000E7010008E7010008E7010008E701000850
:1000F000E7010008E7010008E7010008E701000840
:10010000E7010008E7010008E7010008E70100082F
:10011000E7010008E7010008E7010008E70100081F
:10012000E7010008E7010008E7010008E70100080F
:1001300000F002F800F03AF80AA090E8000C8244BF
:100140008344AAF10107DA4501D100F02FF8AFF29C
:10015000090EBAE80F0013F0010F18BFFB1A43F0A5
:10016000010318470809000028090000103A24BFBD
:1001700078C878C1FAD8520724BF30C830C144BF0C
:1001800004680C607047000000230024002500264E
:10019000103A28BF78C1FBD8520728BF30C148BFEA
:1001A0000B6070471FB51FBD10B510BD00F031F8D2
:1001B0001146FFF7F7FF00F019FC00F04FF803B409
:1001C000FFF7F2FF03BC00F057F800000948804732
:1001D00009480047FEE7FEE7FEE7FEE7FEE7FEE729
:1001E000FEE7FEE7FEE7FEE704480549054A064B41
:1001F00070470000890900083101000888000020CC
:10020000880600208802002088020020704770477E
:100210007047754600F02CF8AE4605006946534617
:1002200020F00700854618B020B5FFF7DDFFBDE8D8
:1002300020404FF000064FF000074FF000084FF04D
:10024000000B21F00701AC46ACE8C009ACE8C009DE
:10025000ACE8C009ACE8C0098D46704710B504464B
:10026000AFF300802046BDE81040FFF7A8BF0000B4
:10027000004870472800002001491820ABBEFEE767
:10028000260002007047000008B50121082000F098
:1002900087FA4FF48070ADF8000003208DF802005B
:1002A00010208DF803006946034800F030F8002064
:1002B0000249087008BD0000000C01402400002025
:1002C00010B50648007838B14FF48071044800F04A
:1002D000B2F800200149087010BD00002400002081
:1002E000000C014010B50648007838B94FF4807111
:1002F000044800F0A2F801200149087010BD000078
:1003000024000020000C014000BFFEE770472DE9EB
:10031000F04102460025002600200023002400278B
:1003200091F803C00CF00F0591F803C00CF0100C0D
:10033000BCF1000F03D091F802C04CEA050591F81A
:1003400000C0BCF1000F31D0146800202BE04FF04A
:10035000010C0CFA00F3B1F800C00CEA03069E424F
:1003600020D183004FF00F0C0CFA03F7BC4305FAC1
:1003700003FC4CEA040491F803C0BCF1280F06D139
:100380004FF0010C0CFA00FCC2F814C00AE091F81E
:1003900003C0BCF1480F05D14FF0010C0CFA00FC72
:1003A000C2F810C0401C0828D1D31460B1F800C0B6
:1003B000BCF1FF0F34DD546800202EE000F1080C82
:1003C0004FF0010808FA0CF3B1F800C00CEA03067C
:1003D0009E4221D183004FF00F0C0CFA03F7BC436F
:1003E00005FA03FC4CEA040491F803C0BCF1280FA1
:1003F00005D100F1080C08FA0CF8C2F8148091F845
:1004000003C0BCF1480F07D100F1080C4FF0010800
:1004100008FA0CF8C2F81080401C0828CED35460AB
:10042000BDE8F0810246002093680B400BB101202B
:1004300000E000207047416170470161704700BFD4
:10044000FEE70000024642EA0100044B1B78984296
:1004500001D1012070470020FCE7000020000020AF
:1004600038B50446002504F00E0028B904F00D004C
:1004700010B904F00B00F0B104F00E0008B145F023
:10048000100504F00D0008B145F0080504F00B005C
:1004900008B145F004050121402000F081F9ADF8D4
:1004A000005001208DF8020048208DF803006946B5
:1004B0000B48FFF72CFF04F0070078B1012104205E
:1004C00000F06EF90120ADF800008DF80200282040
:1004D0008DF8030069460348FFF719FF38BD000097
:1004E000001801400008014010B50F2400F08AF800
:1004F00004462E480078072852D2DFE800F0510465
:100500000A0E1C3245000F2C02D002202749087029
:1005100047E003202549087043E00F2C07D024480A
:10052000047044F0800404202049087002E0012097
:100530001E49087035E00F2C0FD01E480078401C73
:10054000C0B21C49087064280ADD0020087044F01D
:10055000400405201549087002E006201349087080
:100560001FE00F2C0CD013480078401CC0B211497A
:100570000870192807DD0020087044F0200402E00C
:1005800006200A4908700CE00948007840F0100085
:10059000074908700846047801200449087000E003
:1005A00000BF00BF0448047010BD000021000020FF
:1005B00023000020220000202000002010B5044667
:1005C0000E2C04D110210D48FFF72CFF10BD0D2C6F
:1005D00004D108210948FFF725FFF7E70B2C04D1C8
:1005E00004210648FFF71EFFF0E7072C04D1012184
:1005F0000348FFF717FFE9E70220E7E7001801408B
:100600000008014010B50E20FFF7D8FF08B90E20F2
:1006100010BD0D20FFF7D2FF08B90D20F8E70B2021
:10062000FFF7CCFF08B90B20F2E70720FFF7C6FF62
:10063000012801D10720EBE70F20E9E738B5044690
:1006400004F0010018B10121402000F0A9F804F0E5
:10065000020018B10121082000F0A2F82020ADF816
:10066000000003208DF8020010208DF8030004F034
:10067000010018B169460748FFF749FE04F0010080
:1006800018B169460448FFF742FE0020034908708C
:1006900038BD000000180140000C0140140000208B
:1006A00010B5044604F0010040B10D48007800F098
:1006B000010018B120210B48FFF7BFFE04F0020033
:1006C00040B10748007800F0020018B12021064828
:1006D000FFF7B3FE02480078A0430149087010BD3F
:1006E0001400002000180140000C014010B5044621
:1006F00004F0010040B10D48007800F0010018B985
:1007000020210B48FFF797FE04F0020040B1074894
:10071000007800F0020018B920210648FFF78BFE90
:100720000248007820430149087010BD14000020E1
:1007300000180140000C014010B5044604F001000F
:1007400068B11248007800F0010020B12021104863
:10075000FFF773FE03E020210D48FFF76CFE04F065
:10076000020068B10948007800F0020020B12021A1
:100770000848FFF762FE03E020210648FFF75BFE12
:100780000248007860400149087010BD1400002044
:1007900000180140000C014000BFFEE770477047A1
:1007A00029B1064A92690243044B9A6104E0034A64
:1007B00092698243014B9A61704700000010024029
:1007C000704710B500F002F810BD00000CB5002015
:1007D000019000903348006840F48030314908604F
:1007E00000BF3048006800F4003000900198401CC1
:1007F0000190009818B90198B0F5A06FF1D129487F
:10080000006800F4003010B10120009001E00020E9
:1008100000900098012843D12348006840F0100060
:10082000214908600846006820F003000860084677
:10083000006840F0020008601A48406819494860A2
:100840000846406848600846406840F48060486058
:100850000846406820F47C1048600846406840F430
:10086000E81048600846006840F08070086000BFEB
:100870000C48006800F000700028F9D00948406872
:1008800020F00300074948600846406840F0020035
:10089000486000BF0348406800F00C000828F9D108
:1008A0000CBD000000100240002002400448006817
:1008B00020B103480068401E0149086070470000ED
:1008C0001C00002000FB01F2094B1B68B2FBF3F295
:1008D000084B1A604FF0E022126942F001024FF01B
:1008E000E0231A6100BF034A1268002AFBD1704757
:1008F000180000201C00002010B5FFF7D7FF10BD26
:10090000F0B502461C480068B0FBF2F0B0FBF1F312
:10091000B3F1807F01D301201DE023F07F40401E12
:100920004FF0E024606160170F24002807DA2507E4
:100930002F0E124D00F00F06361FAF5503E02507AE
:100940002E0E0F4D2E5400BF00204FF0E024A0616A
:1009500007202061002008B100BFFEE74FF0E02033
:10096000006920F001004FF0E023186102FB01F064
:10097000044B1860F0BD00000000002018ED00E0FE
:1009800000E400E01800002010B51348006840F0B3
:1009900001001149086008464068104908400E49A6
:1009A0004860084600680E4908400B490860084640
:1009B000006820F4802008600846406820F4FE00AB
:1009C00048604FF41F008860FFF7FBFE4FF00060A7
:1009D0000449086010BD0000001002400000FFF84C
:1009E000FFFFF6FE08ED00E000BFFEE70320FFF783
:1009F00025FEFFF749FC4FF47A710120FFF780FFD5
:100A00000320FFF773FEFFF76DFC4FF47A71C820E7
:100A1000FFF758FFFFF754FC0320FFF741FE0F20BC
:100A2000FFF71EFD21E0FFF75FFD80210E20FFF79D
:100A300009FD10B10120FFF77FFE80210D20FFF797
:100A400001FD10B10220FFF777FE80210B20FFF798
:100A5000F9FC10B10120FFF723FE80210720FFF7EA
:100A6000F1FC10B10220FFF71BFEDCE78C0A000846
:100A700000000020280000006C010008B40A0008F3
:100A800028000020600600008801000800A24A0437
:100A9000000000000000000001020304060708092E
:100AA0000000000000000000000000000001000F36
:040AB0000000000042
:0400000508000131BD
:00000001FF
